:100000000C9459000C9481000C9481000C94810094
:100010000C9481000C9481000C9481000C9481005C
:100020000C9481000C9481000C9481000C9481004C
:100030000C9481000C9481000C9481000C9481003C
:100040000C94BA100C9481000C9488100C946210DB
:100050000C9481000C9481000C9481000C9481001C
:100060000C9404110C94810000000000250028006D
:100070002B00040404040404040402020202020229
:10008000030303030303010204081020408001025C
:1000900004081020010204081020000000080002DB
:1000A000010000030407000000000000000023120C
:1000B000941811241FBECFEFD8E0DEBFCDBF12E0F1
:1000C000A0E0B1E0EAEDF9E302C005900D92AE3197
:1000D000B107D9F724E0AEE1B2E001C01D92A53727
:1000E000B207E1F710E0C8E5D0E004C02197FE01B7
:1000F0000E94741BC735D107C9F70E9407130C94DF
:10010000E01C0C94000008950895AF92BF92CF9226
:10011000DF92EF92FF920F931F93CF93DF936C01C7
:100120007B018B01040F151FEB015E01AE18BF08A8
:10013000C017D10759F06991D601ED91FC9101905A
:10014000F081E02DC6010995892B79F7C501DF9172
:10015000CF911F910F91FF90EF90DF90CF90BF90C4
:10016000AF900895FC01538D448D252F30E0842FEE
:1001700090E0821B930B541710F0CF9608950197CF
:100180000895FC01918D828D981761F0A28DAE0FBC
:10019000BF2FB11D5D968C91928D9F5F9F73928F43
:1001A00090E008958FEF9FEF0895FC01918D828D6F
:1001B000981731F0828DE80FF11D858D90E008953C
:1001C0008FEF9FEF0895FC01918D228D892F90E094
:1001D000805C9F4F821B91098F739927089581EE50
:1001E00092E00E94E30021E0892B09F420E0822FB5
:1001F000089580E090E0892B29F00E94EF008111A2
:100200000C9400000895FC01A48DA80FB92FB11D16
:10021000A35ABF4F2C91848D90E001968F7399273C
:10022000848FA689B7892C93A089B1898C9183701A
:1002300080648C93938D848D981306C00288F38913
:10024000E02D80818F7D80830895EF92FF920F9340
:100250001F93CF93DF93EC0181E0888F9B8D8C8D72
:1002600098131AC0E889F989808185FF15C09FB766
:10027000F894EE89FF896083E889F9898081837029
:10028000806480839FBF81E090E0DF91CF911F91D8
:100290000F91FF90EF900895F62E0B8D10E00F5FF9
:1002A0001F4F0F731127E02E8C8D8E110CC00FB6CF
:1002B00007FCFACFE889F989808185FFF5CFCE0167
:1002C0000E940301F1CFEB8DEC0FFD2FF11DE35ADE
:1002D000FF4FF0829FB7F8940B8FEA89FB898081EA
:1002E0008062CFCFCF93DF93EC01888D8823B9F064
:1002F000AA89BB89E889F9898C9185FD03C0808131
:1003000086FD0DC00FB607FCF7CF8C9185FFF2CFAD
:10031000808185FFEDCFCE010E940301E9CFDF91FF
:10032000CF91089590E0FC01E656FF4F2491FC0127
:10033000EA57FF4F3491FC01EE58FF4FE491EE2352
:10034000C9F0222339F0233001F1A8F4213019F14A
:10035000223029F1F0E0EE0FFF1FE859FF4FA59181
:10036000B4918FB7F894EC91611126C030953E237B
:100370003C938FBF08952730A9F02830C9F024306E
:1003800049F7809180008F7D03C0809180008F7736
:1003900080938000DFCF84B58F7784BDDBCF84B5B9
:1003A0008F7DFBCF8091B0008F778093B000D2CF4C
:1003B0008091B0008F7DF9CF3E2BDACF823091054E
:1003C00038F0880F991F880F991F05970197F1F74B
:1003D00008953FB7F8948091870290918802A09188
:1003E0008902B0918A0226B5A89B05C02F3F19F05B
:1003F0000196A11DB11D3FBFBA2FA92F982F8827A5
:10040000BC01CD01620F711D811D911D42E0660F7F
:10041000771F881F991F4A95D1F708958F929F9251
:10042000AF92BF92CF92DF92EF92FF924B015C01AD
:100430000E94E9016B017C010E94E9016C197D09B0
:100440008E099F09683E734081059105A8F321E05C
:10045000821A9108A108B10888EEC80E83E0D81E60
:10046000E11CF11C81149104A104B10429F7FF904F
:10047000EF90DF90CF90BF90AF909F908F900895B6
:100480002FB7F89460918302709184028091850265
:10049000909186022FBF0895CF93DF93EC018A8558
:1004A0009B85AC85BD858E839F83A887B9870E9475
:1004B00040026A837B838C839D8381E08983888368
:1004C000DF91CF910895CF93DF93EC018E819F81CF
:1004D000A885B9858A839B83AC83BD830E94400233
:1004E0006A877B878C879D8781E089838883DF91FA
:1004F000CF910895FC0183858F3F19F061E00C9442
:1005000092010895FC0180819181892B39F0A281AB
:10051000B3819C9111968C919CBD8DBD83858F3F3D
:1005200019F060E00C9492010895AF92BF92CF92BF
:10053000DF92EF92FF920F931F93CF93DF93EC0123
:1005400088819981892B89F06EBD0DB407FEFDCF9E
:10055000BEB48B2DDF91CF911F910F91FF90EF9043
:10056000DF90CF90BF90AF9008958885998511E076
:10057000892B09F010E8AA24A394862F812309F07F
:10058000A12C062F2C813D814E815F8160E271EAB2
:1005900087E090E00E94521BF22EB02EE12CC22E7A
:1005A000D12CFF2019F0C6010E94DE018A85877FC9
:1005B00009F042C08D858F3F89F0902F912381E013
:1005C00009F480E08A1551F0EF85F8898F89992325
:1005D00069F19081892B8083AA24A394E989FA89FF
:1005E0008081998D892B8083FF2019F0C6010E949C
:1005F000DE018E858F3F39F0EB89FC898081988DF3
:10060000892309F0E12AE989FA899081898D809509
:10061000892380838E858F3F09F0BE2C888599853C
:10062000892BB9F5110F1111BCCF93CF9081809513
:1006300089238083A12CD2CFE989FA898081998D81
:10064000892B8083FF2019F0C6010E94DE018D8571
:100650008F3F49F0EF85F8898F89902F9123A9F07A
:100660009081892B8083E989FA899081898D809591
:10067000892380838E858F3F69F2EB89FC89808195
:10068000988D892339F2E12AC5CF908180958923FD
:10069000E9CF1695C8CF8F929F92AF92BF92CF921B
:1006A000DF92EF92FF920F931F93CF93DF937C0122
:1006B0004B016A01B22EA32E0E948202E401C80CF3
:1006C000D91CCC15DD0569F4CB2DDA2D0C0F1D1FBF
:1006D000C017D10759F06FEFC7010E9495028993A7
:1006E000F7CF6991C7010E949502EBCFC7010E9425
:1006F0007A0281E0DF91CF911F910F91FF90EF90EF
:10070000DF90CF90BF90AF909F908F9008958F9281
:100710009F92AF92BF92CF92DF92EF92FF920F9390
:100720001F93CF93DF937C01B62EA72E6A01490158
:100730000E948202E401080D191DC017D10761F45F
:10074000CB2DDA2DCC0EDD1ECC15DD0551F06991D7
:10075000C7010E949502F8CF6991C7010E949502D6
:10076000ECCFC7010E947A0281E0DF91CF911F9107
:100770000F91FF90EF90DF90CF90BF90AF909F9040
:100780008F9008950895089520913F02260F3327F2
:10079000331F21323105ECF42091B702FC0190E0C7
:1007A00080E0243069F082E00895A0913F02219119
:1007B000AC01415E5D4FA40FB52FB11D2C93019686
:1007C000861798F380913F02680F60933F0280E0A4
:1007D000089581E008951092B70281E08093B602F7
:1007E0001092910261E082E10E94920161E083E156
:1007F0000E949201E9EBF0E080818E7F808380810E
:100800008D7F808388E48093B80085E48093BC006A
:1008100008951092900210928F021092BE021092D0
:10082000E0020E94EB0383E890E090938E028093B5
:100830008D0284E890E090938C0280938B0208955F
:10084000CF93DF9391E090931E028823B9F0C0917B
:10085000B800D091BA008091BC008A7B8093BC0024
:1008600060E082E10E94920160E083E10E949201D7
:100870000E94EB03D093BA00C093B800DF91CF91F0
:1008800008958F929F92AF92BF92CF92DF92EF9294
:10089000FF920F931F93CF93DF93D091E002D13259
:1008A00008F0D7C0182FC091DF020E94E9016B0148
:1008B0007C018091B70281116BC082E08093B70206
:1008C0001093B6028FEF8093B5021092B402D093CA
:1008D000B302AFEBB2E0E3E9F2E080E0D81391C0FD
:1008E0001092920280919202CC0FC82BC093920278
:1008F00080919102813009F088C0109291020E948B
:10090000E9016B017C01809192028093BB00809190
:10091000B9029091BA02A091BB02B091BC02892B9E
:100920008A2B8B2BA1F00E94E9010091B902109152
:10093000BA022091BB023091BC026C197D098E096C
:100940009F09061717072807390708F442C0809146
:10095000BC0083FDD8CF85EC8093BC000E94E901E8
:100960006B017C018091B702823009F450C0809104
:10097000B5028F3F09F46FC08091B502803209F44F
:100980006CC08091B502803309F469C084E026C050
:100990008091B9029091BA02A091BB02B091BC02C1
:1009A000892B8A2B8B2B09F484CF0E94E90180903C
:1009B000B9029090BA02A090BB02B090BC026C1930
:1009C0007D098E099F0986169706A806B90608F0C4
:1009D00070CF8091B8020E94200485E01092BE0280
:1009E0001092E0021092BD02DF91CF911F910F9102
:1009F000FF90EF90DF90CF90BF90AF909F908F903F
:100A000008959D9191938F5F69CF85EEA5CF8091D9
:100A1000B9029091BA02A091BB02B091BC02892B9D
:100A20008A2B8B2B09F49ECF0E94E9010091B90219
:100A30001091BA022091BB023091BC026C197D0961
:100A40008E099F09061717072807390708F08ACF6C
:100A5000C0CF81E0C3CF80E0C1CF82E0BFCF83E0D1
:100A6000BDCF1F93CF93DF93EA01122FDC011196C4
:100A70008D919C91DC01ED91FC910280F381E02D40
:100A80000995C817D90729F4812F0E94410491E0E4
:100A9000811190E0892FDF91CF911F910895AF923E
:100AA000BF92CF92DF92EF92FF920F931F93CF935B
:100AB000DF9300D0CDB7DEB7DC01211103C018965B
:100AC0002C911897253008F043C01F964D935D93E5
:100AD0006D937C93529790E080E0E22EF12C8E157E
:100AE0009F05B4F41A962C911A9721110AC0FD01A2
:100AF000E80FF91F4387452F562F672F7727019659
:100B0000EECFF701E81BF90BEA0FFB1F4287F3CF8B
:100B10006D018BE0C80ED11C16969C911697179606
:100B20008C91179799838A83AD90BC901197A114EB
:100B3000B10409F441C019960C9110E098012E0DF2
:100B40003F1DD50114968D919C918217930710F447
:100B500080E016C0F50181819281208131E03093DF
:100B6000BD022093DF021092BE021092E002011536
:100B7000110599F421E0A701B601C5010E943105D4
:100B80000F900F90DF91CF911F910F91FF90EF90F9
:100B9000DF90CF90BF90AF900895DC01ED91FC9174
:100BA0000280F381E02DA801BE016F5F7F4F0995A0
:100BB0000817190769F6DECF1296ED91FC9113978D
:100BC000309731F214962D913C91159719960C910E
:100BD00010E02330310571F48E7F89839A830F5F93
:100BE0001F4F9E012F5F3F4FA701B601CF010E940B
:100BF0008703C6CF2115310519F49F779983F1CF6B
:100C00002230310511F49068F9CF2130310549F7D0
:100C10009F779064F3CFCF93DF93EC018B81882390
:100C2000A1F0888191E09093BD028093DF02109241
:100C3000BE021092E00281E00E94410491E0811125
:100C400090E0892FDF91CF9108950E94090481E0FF
:100C50008B83CE010E940B06982F8111E2CFF1CF3A
:100C60000895E091900280918F02E81730F4F0E04F
:100C7000EE59FD4F808190E008958FEF9FEF08952A
:100C80009091900280918F022FEF3FEF981748F4D8
:100C9000E92FF0E0EE59FD4F208130E09F5F909307
:100CA0009002C901089580918F0290919002891B52
:100CB000990B0895CF92DF92EF92FF920F931F93BB
:100CC000CF93DF937C01CB018A012091BD022223C7
:100CD00089F0EB016B01C40ED51ECC15DD0569F062
:100CE0006991D701ED91FC910190F081E02DC70150
:100CF0000995F3CF642F0E94C403C801DF91CF91FF
:100D00001F910F91FF90EF90DF90CF900895CF93B8
:100D1000DF931F92CDB7DEB769832091BD022223F6
:100D2000F9F02091E002203258F021E030E0FC019F
:100D30003383228390E080E00F90DF91CF9108957C
:100D40008091BE02E82FF0E0E154FD4F998190833D
:100D50008F5F8093BE028093E00281E090E0ECCF51
:100D600061E0CE0101960E94C403F7CF90E080E0DD
:100D700008952F923F924F925F926F927F928F923F
:100D80009F92AF92BF92CF92DF92EF92FF920F931A
:100D90001F93CF93DF9300D000D0CDB7DEB7FC0117
:100DA0004B01042F9681878199838A83208031802B
:100DB0002114310409F439C1418550E0D101149660
:100DC0008D919C9184179507C8F4B12C8B2D0F90B1
:100DD0000F900F900F90DF91CF911F910F91FF9087
:100DE000EF90DF90CF90BF90AF909F908F907F90CB
:100DF0006F905F904F903F902F900895F101808108
:100E000091E09093BD028093DF021092BE02109297
:100E1000E00220E0BE016F5F7F4FC1010E943105FB
:100E2000B82E882391F2802F90E09C838B83D12C65
:100E3000C12C01E0AB81BC81CA16DB0638F6F1019A
:100E4000848195817D01EC18FD088E159F0508F4BD
:100E50007C01D101AC900E94E9012B013C01809101
:100E6000B702811172C01E2D113208F010E20093FA
:100E7000B70221E08B819C818E199F09C816D90683
:100E800008F420E02093B602BFEFB093B5021092B1
:100E9000B4028FEF810F8093B3020093920280918E
:100EA0009202AA0CA82AA09292028091910281300B
:100EB00009F092C0109291020E94E9012B013C01BD
:100EC000809192028093BB008091B9029091BA0206
:100ED000A091BB02B091BC02892B8A2B8B2BA1F075
:100EE0000E94E9012091B9023091BA024091BB02FF
:100EF0005091BC02641975098609970926173707AE
:100F00004807590708F442C08091BC0083FDD8CF40
:100F1000E5ECE093BC000E94E9012B013C018091CB
:100F2000B702813009F45CC08091B402811710F4DB
:100F30001091B402A3E9B2E0E2E6F2E080E08117AA
:100F400051F19D9191938F5FFACF8091B902909169
:100F5000BA02A091BB02B091BC02892B8A2B8B2BC9
:100F600009F47DCF0E94E9012091B9023091BA02C3
:100F70004091BB025091BC0264197509860997091A
:100F8000261737074807590708F069CF8091B8023C
:100F90000E94200410E01092900210938F021E1500
:100FA0001F0409F012CF34016C0C7D1C2301C20117
:100FB000861997098E159F05A8F5D10111968D9177
:100FC0009C91DC01ED91FC910284F385E02D099563
:100FD000F20181932F01EBCFF5EEF093BC009BCF94
:100FE0008091B9029091BA02A091BB02B091BC026B
:100FF000892B8A2B8B2B09F492CF0E94E901209137
:10100000B9023091BA024091BB025091BC026419FE
:10101000750986099709261737074807590708F001
:101020007ECFB4CFCE0CDF1C05CFA281B381109749
:1010300009F4CBCE2481358110E0418550E0233086
:10104000310571F4816089839A834F5F5F4F94010A
:10105000BE016F5F7F4FCD010E944B03B82EB6CE0D
:101060002115310519F490689983F1CF22303105AB
:1010700011F49F77F9CF2130310549F7906CF4CF07
:10108000CF93DF93EC01BC01655F7F4F48850E94E1
:10109000B906882301F1488550E030E020E060E0A7
:1010A00070E0CB0124173507CCF4982F872F762FCB
:1010B0006627EA85E1110AC0FA01E21BF30BEC0F87
:1010C000FD1FE2856E2B2F5F3F4FECCFFE01E20F3D
:1010D000F31FE385F7CF6FEF7FEFCB01DF91CF9168
:1010E00008958F929F92AF92BF92CF92DF92EF922C
:1010F000FF920F931F93CF93DF93EC014A015B01A3
:10110000888199810E9440082A8101E010E002C094
:10111000000F111F2A95E2F701501109012E000C52
:10112000220B330BAB81680179010A2E04C0CC0C71
:10113000DD1CEE1CFF1C0A94D2F7C094D094E094FE
:10114000F094C622D722E822F922E881F981B90178
:10115000A801482159216A217B2104C0440F551F51
:10116000661F771FAA95D2F74C295D296E297F2922
:101170002085CF01DF91CF911F910F91FF90EF90CC
:10118000DF90CF90BF90AF909F908F900C944F05C1
:101190000F931F93CF93DF93EC01888199810E9475
:1011A0004008AB01BC012A8181E090E002C0880FB9
:1011B000991F2A95E2F70197092E000CAA0BBB0B89
:1011C0002B8104C076956795579547952A95D2F758
:1011D0008C019D010423152326233723C901B8015F
:1011E000DF91CF911F910F910895AF92BF92CF924F
:1011F000DF92EF92FF920F931F93CF93DF93CDB7C0
:10120000DEB7E8970FB6F894DEBF0FBECDBF8C01F6
:10121000FC01868D978D1BA21CA21DA21EA29D8B78
:101220008C8B1F8A1E8AFF24F394FD8E8BE390E043
:101230009B8F8A8F1E8E8EE08C8F4EE0BE01695D83
:101240007F4FCE0144960E94B9068FA198A598279A
:1012500089279827F80195A784A789A59AA5982793
:101260008927982797A786A78BA59CA598278927C4
:10127000982791AB80AB6DA57EA57627672776274B
:1012800073AB62AB8FA598A998278927982795AB50
:1012900084AB89A99AA998278927982797AB86AB09
:1012A0008BA99CA998278927982791AF80AF072EF3
:1012B000000C880B990B0E941B1A20E030E04AEAD0
:1012C00053E40E94781928EB3EE142E152E40E9487
:1012D0000719F8016283738384839583868D978DC4
:1012E000188A198A1A8A1B8A9A8389831C821B820C
:1012F000FA868CE190E098878F831B86F986CE0171
:1013000001965C019EAB8DAB82E08FAB83E088AF32
:10131000CE01C5960E94C808C12CD12CE12CE5E471
:10132000FE2E63307105E1F06230710599F0613095
:10133000710509F4D6C0C12CD12CF0E8EF2EFFE3E3
:10134000FF2E672B69F4C12CD12C50E8E52E56E412
:10135000F52E06C0C12CD12C70E8E72E75E4F72ECF
:10136000F80164A575A5072E000C880B990B0E9447
:101370001B1AA70196010E947819F80166837783EA
:101380008087918766A577A5072E000C880B990B9F
:101390000E941B1AA70196010E947819F801628722
:1013A00073878487958760A971A9072E000C880B25
:1013B000990B0E941B1AA70196010E947819F80147
:1013C00066877787808B918B868D978D188A198A8F
:1013D0001A8A1B8A9A8389831C821B8281E08A87EE
:1013E0002BE130E038872F831B868987BEAAADAA00
:1013F00082E08FAB83E088AFCE01C5960E94C8081B
:10140000C12CD12C33E0E32E33E4F32E61157105AA
:1014100019F1C12CD12C23E8E22E22E4F22E613006
:101420007105D1F093E3C92EDC2C93E0E92E92E410
:10143000F92E6230710581F0C12CD12C40E8E42EE8
:101440004FE3F42E6330710539F483E3C82EDC2CAE
:1014500083E8E82E81E4F82EF80164A975A9072E27
:10146000000C880B990B0E941B1AA70196010E9481
:101470007819F801628B738B848B958B66A977A999
:10148000072E000C880B990B0E941B1AA7019601CE
:101490000E947819F801668B778B808F918F60ADF1
:1014A00071AD072E000C880B990B0E941B1AA70127
:1014B00096010E947819F801628F738F848F958F3F
:1014C000E8960FB6F894DEBF0FBECDBFDF91CF9187
:1014D0001F910F91FF90EF90DF90CF90BF90AF9052
:1014E0000895C12CD12CE12C66E4F62E39CFFC01F5
:1014F00001900020E9F73197AF01481B590BBC015F
:1015000081EE92E00C9485008F929F92AF92BF92F1
:101510000F931F93CF93DF93CDB7DEB7A1970FB68D
:10152000F894DEBF0FBECDBF19A2423008F44AE0E6
:101530008E010F5D1F4F842E912CB12CA12CA50183
:1015400094010E94521BE62FB901CA01EA30F4F45B
:10155000E05DD801EE938D01232B242B252B79F709
:1015600090E080E0109719F0CD010E94770AA196D3
:101570000FB6F894DEBF0FBECDBFDF91CF911F91A4
:101580000F91BF90AF909F908F900895E95CE1CF4D
:10159000CF93DF930E94770AEC018AE591E00E94E5
:1015A000770A8C0F9D1FDF91CF9108954F925F9224
:1015B0006F927F928F929F92AF92BF92CF92DF9263
:1015C000EF92FF920F931F93CF936B017C01742EC8
:1015D000AC019B010E943D1B882399F08DE591E0B1
:1015E000CF911F910F91FF90EF90DF90CF90BF9020
:1015F000AF909F908F907F906F905F904F900C94E2
:10160000770A46015701E894B7F82FEF3FEF4FE70D
:101610005FE7C501B4010E943D1B81110DC02FEF92
:101620003FEF4FE75FE7C501B4010E947319181639
:101630001CF481E691E0D4CF2FEF3FEF4FE75FE45A
:10164000C701B6010E94CB1A18161CF485E691E07A
:10165000C7CF2FEF3FEF4FE75FECC701B6010E9406
:10166000731987FDF3CF20E030E0A901C701B6016F
:101670000E94731910E000E087FF0AC06DE281EE5E
:1016800092E00E9425018C01F7FAF094F7F8F094AB
:10169000C0E060E070E080E09FE37C1641F020E075
:1016A00030E040E251E40E947819CF5FF6CFA70105
:1016B00096010E9407192B013C010E94EA194B0177
:1016C0005C014AE00E94840A7C01E00EF11ECC23FA
:1016D000C1F1C501B4010E94191A9B01AC01C301FB
:1016E000B2010E9406194B015C016EE281EE92E0AC
:1016F0000E942501E80EF91EC15018F120E030E0EB
:1017000040E251E4C501B4010E94D01A2B013C0112
:101710000E94EA194B01B12CA12C4AE0C501B40189
:101720000E94840AE80EF91EC501B4010E94191A2C
:101730009B01AC01C301B2010E9406194B015C017F
:10174000DBCFC701CF911F910F91FF90EF90DF90FA
:10175000CF90BF90AF909F908F907F906F905F9051
:101760004F9008958F929F92AF92BF92CF92DF9247
:10177000EF92FF920F931F93CF93DF938C01EB01B6
:10178000DC0115968D919C910E94F508F801058168
:1017900016810E944002FE01349620E2DF011D9274
:1017A0002A95E9F7C12CD12C7601C394C882D9823D
:1017B000EA82FB82F80126A137A14901B12CA12CB4
:1017C0008C829D82AE82BF82C886D986EA86FB86DD
:1017D000688B798B8A8B9B8B2AE038EE4CE151E445
:1017E00066817781808591850E94D01A6C8B7D8B74
:1017F0008E8B9F8B2AE038EE4CE151E4D8011A968B
:101800006D917D918D919C911D970E94D01A688F4A
:10181000798F8A8F9B8F2AE038EE4CE151E4F801F2
:1018200066857785808991890E94D01A6C8F7D8F1B
:101830008E8F9F8F81E0DF91CF911F910F91FF904D
:10184000EF90DF90CF90BF90AF909F908F900895D2
:101850000F931F93CF93DF938C01EB01DC0115965F
:101860008D919C910E94F508F801058116810E94D6
:101870004002AB01BC01FE01349680E2DF011D9203
:101880008A95E9F781E090E0A0E0B0E08883998351
:10189000AA83BB83F80180A591A5B0E0A0E08C836A
:1018A0009D83AE83BF8384E090E0A0E0B0E08887B2
:1018B0009987AA87BB87488B598B6A8B7B8B25E3DB
:1018C0003AEF4EE85CE362897389848995890E94C6
:1018D000D01A6C8B7D8B8E8B9F8B25E33AEF4EE875
:1018E0005CE3D80156966D917D918D919C915997AD
:1018F0000E94D01A688F798F8A8F9B8F25E33AEFE9
:101900004EE85CE3F801628D738D848D958D0E94A5
:10191000D01A6C8F7D8F8E8F9F8F81E0DF91CF915A
:101920001F910F9108950F931F93CF93DF938C0115
:10193000EB01DC0115968D919C910E94F508F80150
:10194000058116810E944002AB01BC01FE01349664
:1019500080E2DF011D928A95E9F784E290E0A0E041
:10196000B0E088839983AA83BB83F80182A593A5FD
:10197000B0E0A0E08C839D83AE83BF838DE090E0D8
:10198000A0E0B0E088879987AA87BB87488B598BEE
:101990006A8B7B8B82819381A481B5818C8B9D8B9B
:1019A000AE8BBF8B81E0DF91CF911F910F91089596
:1019B0002F923F924F925F926F927F928F929F925F
:1019C000AF92BF92CF92DF92EF92FF920F931F934D
:1019D000CF93DF93D82FC92F8B010E94CA1824E61A
:1019E00030E040E050E00E94521B49019B01AC01F5
:1019F00060E876E988E990E00E94421B6B017C0177
:101A0000F80191828082ED2FFC2F2191822F022EEE
:101A1000000C990BC0970A97C0F32E3239F51F01BD
:101A200080E8882E86E9982E88E9A82EB12C9AE0C5
:101A3000492E512C612C712CF101C1911F010C2EEA
:101A4000000CDD0BE097CA30D10580F4C501B4016C
:101A5000A30192010E94521B49015A01DE010E941A
:101A6000851BC60ED71EE81EF91EE6CFA5E0B0E026
:101A7000A70196010E947A1B6F5F7F4F8F4F9F4F88
:101A800023E030E040E050E00E94521BF801228346
:101A90003383448355831682DF91CF911F910F9139
:101AA000FF90EF90DF90CF90BF90AF909F908F907E
:101AB0007F906F905F904F903F902F9008951F936D
:101AC000CF93DF93EC0118811D3209F42196CE01EA
:101AD0000E94CA189B01AC01A4E6B0E00E947A1BE8
:101AE000AB01BC01FE012991822F022E000C990B43
:101AF000C0970A97B8F32E3231F58181082E000C79
:101B0000990BC0978A309105F0F4AAE0A89F900144
:101B1000A99F300D1124C901330FAA0BBB0B480F2D
:101B2000591F6A1F7B1F8281082E000C990BC097DA
:101B30008A30910540F4092E000CAA0BBB0B480F0C
:101B4000591F6A1F7B1F1D3239F47095609550959F
:101B500041955F4F6F4F7F4FCB01BA01DF91CF911E
:101B60001F9108950F931F93CF93DF938C01EB0187
:101B700088E2FB0111928A95E9F74BE050E069E6B3
:101B800071E0CE010E94D11C1B8681E090E0A0E0B4
:101B9000B0E08C879D87AE87BF87F80183819481F1
:101BA000092E000CAA0BBB0B888B998BAA8BBB8BC5
:101BB0008DE090E0A0E0B0E08C8B9D8BAE8BBF8B76
:101BC0001CA21DA21EA21FA280E090E0A0E2B2EC27
:101BD0008C8F9D8FAE8FBF8F80E090E0A2EDB2E43E
:101BE000888F998FAA8FBB8F84E09DEAA0E4BBE326
:101BF00088A399A3AAA3BBA3DF91CF911F910F91B3
:101C000008950F931F93CF93DF938C01EB0188E22C
:101C1000FB0111928A95E9F74BE050E063E771E030
:101C2000CE010E94D11C1B8641E050E060E070E0D4
:101C30004C875D876E877F87F80183819481092EA9
:101C4000000CAA0BBB0B888B998BAA8BBB8B4C8B84
:101C50005D8B6E8B7F8B1CA21DA21EA21FA28AE031
:101C600098EEACE1B3EC8C8F9D8FAE8FBF8F8AE086
:101C700098EEACE1B3E4888F998FAA8FBB8F83E293
:101C80009BEDA9E7BDE388A399A3AAA3BBA3DF911A
:101C9000CF911F910F9108950F931F93CF93DF93CF
:101CA0008C01EB0188E2FB0111928A95E9F74BE088
:101CB00050E06DE771E0CE010E94D11C1B8681E0EF
:101CC00090E0A0E0B0E08C879D87AE87BF87F801E9
:101CD00083819481092E000CAA0BBB0B888B998BF6
:101CE000AA8BBB8B84E090E0A0E0B0E08C8B9D8B56
:101CF000AE8BBF8B1CA21DA21EA21FA287ED93EA72
:101D0000ABE0B2EC8C8F9D8FAE8FBF8F87ED93EAE7
:101D1000ABE0B2E4888F998FAA8FBB8F8AE99BEAE8
:101D2000ABE0B9E388A399A3AAA3BBA3DF91CF91AA
:101D30001F910F9108950C94381C0C94381C0C942E
:101D4000381C9F92AF92BF92CF92DF92EF92FF9298
:101D50000F931F93CF93DF93CDB7DEB7AA970FB63C
:101D6000F894DEBF0FBECDBF8C01DC0197965C936B
:101D70004E939697CA01019699969C938E93989745
:101D80004E5F5F4F9B965C934E939A975E962D9114
:101D90003C911BA21CA21DA21EA23D8B2C8B1F8A54
:101DA0001E8A81E08D8F4BE650E05B8F4A8F1E8E3E
:101DB0008C8F188A198A1A8A1B8A3A8329831C8273
:101DC0001B828A8728E630E038872F831B86898725
:101DD0005E01B4E1AB0EB11CB8A6AFA289A787E043
:101DE0008AA741E050E060E070E0CE0187960E9453
:101DF0007108CE0187960E94C8086130710581057F
:101E0000910539F461E070E080E090E00E940E02FC
:101E1000F0CF64E670E080E090E00E940E0220E0E7
:101E200047E050E060E070E0FE0131966F01CF01C5
:101E30000E944F0564E670E080E090E00E940E0290
:101E4000D8015E968D919C91188A198A1A8A1B8AEC
:101E50009A8389831C821B82FF24F394FA8689E18A
:101E600090E098878F831B86F98620E040E050E061
:101E7000BA01C6010E944F05F801868D978D188A18
:101E8000198A1A8A1B8A9A8389831C821B82FA8682
:101E90008AE190E098878F831B86F986DD8ACC8A59
:101EA00083E0E82EEE8A1F8A40E050E0BA01C501C7
:101EB0000E947108D8015E968D919C91188A198AAA
:101EC0001A8A1B8A9A8389831C821B82FA868BE179
:101ED00090E098878F831B86F986DD8ACC8A92E012
:101EE000992E9E8AEF8A41E050E060E070E0C501E3
:101EF0000E947108F801868D978D188A198A1A8AAE
:101F00001B8A9A8389831C821B82FA868CE190E06B
:101F100098878F831B86F986DD8ACC8A9E8AEF8A12
:101F200040E050E0BA01C5010E947108D8015E96F8
:101F30008D919C91188A198A1A8A1B8A9A8389839F
:101F40001C821B82FA868BE690E098878F831B8623
:101F5000F98620E041E050E060E070E0C6010E94B8
:101F60004F0564E670E080E090E00E940E02F80108
:101F700080A191A1009739F0DC01ED91FC910280E4
:101F8000F381E02D0995F80182A193A1009739F022
:101F9000DC01ED91FC910280F381E02D0995F801BF
:101FA00084A195A1009739F0DC01ED91FC910280AC
:101FB000F381E02D099587E090E00E949C1BFC01D5
:101FC00086E291E09183808380E596E09483838329
:101FD00016830583D8019196FC93EE93909787E042
:101FE00090E00E949C1BFC0188E191E0918380833A
:101FF00081E596E09483838316830583D8019396C5
:10200000FC93EE93929787E090E00E949C1BFC016A
:102010008AE091E09183808382E596E094838383D4
:1020200016830583D8019596FC93EE93949781E0EF
:10203000AA960FB6F894DEBF0FBECDBFDF91CF9149
:102040001F910F91FF90EF90DF90CF90BF90AF90D6
:102050009F90089585ED8093BC008091B902909186
:10206000BA02A091BB02B091BC020796A11DB11D9E
:1020700023E0B695A795979587952A95D1F7209156
:10208000BC0024FD03C01092B70208954091B9022C
:102090005091BA026091BB027091BC02452B462B55
:1020A000472B69F30097A105B10541F025E32A9577
:1020B000F1F700000197A109B109E1CF8091B802C1
:1020C0000C9420041F920F920FB60F9211242F939D
:1020D0003F934F935F936F937F938F939F93AF93B0
:1020E000BF93EF93FF9381EE92E00E940301FF9173
:1020F000EF91BF91AF919F918F917F916F915F9180
:102100004F913F912F910F900FBE0F901F901895F8
:102110001F920F920FB60F9211242F938F939F93BC
:10212000EF93FF93E091F102F091F2028081E09150
:10213000F702F091F80282FD1BC090818091FA02B3
:102140008F5F8F732091FB02821741F0E091FA02BA
:10215000F0E0EF51FD4F958F8093FA02FF91EF91E0
:102160009F918F912F910F900FBE0F901F901895F8
:102170008081F4CF1F920F920FB60F9211242F93EC
:102180003F938F939F93AF93BF93809183029091DE
:102190008402A0918502B09186023091820223E0F0
:1021A000230F2D3758F50196A11DB11D20938202F2
:1021B0008093830290938402A0938502B093860259
:1021C0008091870290918802A0918902B0918A0241
:1021D0000196A11DB11D8093870290938802A09360
:1021E0008902B0938A02BF91AF919F918F913F91E5
:1021F0002F910F900FBE0F901F90189526E8230F78
:102200000296A11DB11DD2CF1F920F920FB60F9251
:1022100011242F933F934F935F936F937F938F93EB
:102220009F93AF93BF93EF93FF938091B900887F03
:10223000803609F44AC0F0F5883209F4A7C018F5D1
:10224000803109F49BC0B8F4882309F4F9C08830C0
:1022500009F494C0FF91EF91BF91AF919F918F913D
:102260007F916F915F914F913F912F910F900FBE92
:102270000F901F901895883109F488C0803251F76B
:102280008093B50214C0803409F49DC040F48033BB
:10229000B9F38833F9F68093B50285ECB0C0803588
:1022A00009F485C0883509F496C0883499F60E94EF
:1022B0002A10D0CF883909F48CC038F5883729F036
:1022C00050F4883611F0803729F683E08093B70206
:1022D0001092610257C0883809F47BC0803919F028
:1022E000803809F0B7CF80916102803208F071C068
:1022F000E091610281E08E0F809361028091BB00CA
:10230000F0E0EF5BFD4F80833DC0803B39F0E0F4AF
:10231000803A09F479C0883A09F09CCF84E0809330
:10232000B7021092400210923F02E0918D02F091AC
:102330008E02099580913F0281110FC081E0809348
:102340003F0210921F0209C0803C09F4A6CF883CCE
:1023500009F4A3CF883B09F07DCFE091400281E0F2
:102360008E0F80934002F0E0E15EFD4F808180930C
:10237000BB009091400280913F0229C0809192025F
:102380008093BB0085EC8093BC0064CF9091B40235
:102390008091B302981758F5E091B40281E08E0F56
:1023A0008093B402F0E0ED56FD4F8081E9CFE091DB
:1023B000B40281E08E0F8093B4028091BB00F0E004
:1023C000ED56FD4F80839091B4028091B30298172F
:1023D000C8F285E8D8CFE091B40281E08E0F8093F7
:1023E000B4028091BB00F0E0ED56FD4F80838091F8
:1023F000B60281115CCF81E08093910284EA8093E0
:10240000BC001092B70226CF85EC8093BC001092DE
:10241000B70280916102803230F4E0916102F0E015
:10242000EF5BFD4F10826091610270E0E0918B02E2
:10243000F0918C0281E492E00995109261020ACF3A
:102440001092B50234CFE1EEF2E01382128288EEF0
:1024500093E0A0E0B0E084839583A683B78324E370
:1024600031E03183208325EC30E03587248724EC6C
:1024700030E03787268720EC30E0318B208B21EC51
:1024800030E0338B228B22EC30E0358B248B26EC32
:1024900030E0378B268B118E128E138E148EEEE762
:1024A000F3E01382128284839583A683B78386E444
:1024B00091E091838083E4ECF3E010821182138237
:1024C0001282148215821682178210861286118655
:1024D00013861486158616861786118A108A128A24
:1024E000138A148A158A168A108E178A118E128EF4
:1024F000138E148E158E12A213A214A215A216A268
:1025000017A210AA11AA12AA13AA14AA15AA16AEE3
:1025100017AE109208041092090410920A04109247
:102520000B041092100410921104109216041092D1
:102530001704109218041092190410921E0410929D
:102540001F04109224041092250410922604109265
:10255000270410922C0410922D0410923204109231
:102560003304109234041092350410923A041092FD
:102570003B041092400410924104109242041092C5
:102580004304109248041092490482E08093590455
:1025900010925A0410925B0410925C0410925E0434
:1025A00010925D041092600410925F041092610416
:1025B00010926204109263041092640410926504F5
:1025C00010926604109267041092680410926904D5
:1025D00010926A0410926B0410926C0410926D04B5
:1025E00010926E0410926F041092700410924A04BC
:1025F000EAE8F3E088E591E091838083178E168EF8
:1026000011A210A213A212A215A214A20895CF9390
:10261000DF93CDB7DEB7C257D1090FB6F894DEBF4E
:102620000FBECDBF789484B5826084BD84B58160CF
:1026300084BD85B5826085BD85B5816085BD80918D
:102640006E00816080936E00109281008091810005
:1026500082608093810080918100816080938100FD
:10266000809180008160809380008091B1008460BF
:102670008093B1008091B00081608093B000809120
:102680007A00846080937A0080917A0082608093DF
:102690007A0080917A00816080937A0080917A003C
:1026A000806880937A001092C100E091F102F0916D
:1026B000F20282E08083E091ED02F091EE0210825E
:1026C000E091EF02F091F0028FEC80831092F9021A
:1026D000E091F502F091F60286E08083E091F3024A
:1026E000F091F402808180618083E091F302F091A7
:1026F000F402808188608083E091F302F091F4021B
:10270000808180688083E091F302F091F4028081FF
:102710008F7D80830E9409048091A8039091A90372
:10272000009711F00E94381C86E090E00E949C1BEC
:10273000FC0188E680838EE793E092838183138295
:1027400080E290E095838483F093A903E093A8034B
:1027500005E011E0E090A803F090A9030E940904AD
:10276000D70113961C93C7010E940B068111AFC4B9
:102770006AE070E080E090E00E940E02015051F7A4
:1027800087E891E00E94C80A8CE591E00E94C80A9F
:10279000E9E4F0E0EC0FFD1F3C96E396FFAFEEAFEF
:1027A000E397812C912C5401839424E0422E512CE8
:1027B000612C712CCE010D96AF969FAF8EAFAF9767
:1027C000DE01D196E196BFAFAEAFE19780E0282E53
:1027D00080E0382E01E081EE92E00E94E3001816BE
:1027E00019060CF0CBC281EE92E00E94C100182FB6
:1027F0008091610490916204A0916304B09164049B
:102800000196A11DB11D8093610490936204A09371
:102810006304B0936404143209F48EC2E0915B0443
:1028200015320CF0C5C01A3019F01D3009F092C2F3
:10283000EF3008F03AC1F0E0E65BFB4F1082809188
:102840004904882309F43FC120914A04822F022EB3
:10285000000C990B3FEB320F363008F0B5C0C7972C
:102860008295807F90914B04292F092E000C330B09
:102870004FEB490F463008F0AFC027533109820FA4
:10288000909148048913FEC080916D0490916E046C
:10289000A0916F04B09170040196A11DB11D8093A9
:1028A0006D0490936E04A0936F04B09370048091B4
:1028B0005C04882399F08091650490916604A0914E
:1028C0006704B09168040196A11DB11D8093650451
:1028D00090936604A0936704B0936804F090590441
:1028E000FF2009F482C0B1E0FB1234C086EE93E011
:1028F0000E94630284EF93E00E94630280915C0473
:10290000882341F187E0E4EDF3E0A6ECB3E0019029
:102910000D928A95E1F787E0EBEDF3E0ADECB3E0E3
:1029200001900D928A95E1F70E9440026093E203C4
:102930007093E3038093E4039093E503F092C5035F
:10294000F092C40382E094E00E944C0280E194E0A3
:102950000E944C02E0905F04F0906004E114F104E6
:1029600009F4A3C0E0915F04F091600466A177A12F
:10297000F70186A197A10E94C11C892B09F095C07F
:10298000B701C70140960E94CA1C0E944002D701AD
:1029900090966D937D938D939C93939795960C93BE
:1029A000959794960C9394979A96ED90FC90D6CF29
:1029B0001A3209F43DCF1C3209F0CCC18091480491
:1029C00081278093480434CF2156263018F4875548
:1029D000910946CFC09744CF9156963018F42755A9
:1029E00031094DCF205331094ACF84EF93E00E9443
:1029F000630280915C04882321F187E0E4EDF3E039
:102A0000A6ECB3E001900D928A95E1F787E0EBED3B
:102A1000F3E0ADECB3E001900D928A95E1F70E94EE
:102A200040026093E2037093E3038093E403909386
:102A3000E5030093C5030093C4038EE194E00E9474
:102A40004C028091360490913704A0913804B091E3
:102A500039048093320490933304A0933404B093E8
:102A600035040E94400260932E0470932F048093DB
:102A700030049093310400932D0400932C048AE3D6
:102A800094E066CF8091690490916A04A0916B04F0
:102A9000B0916C040196A11DB11D809369049093BF
:102AA0006A04A0936B04B0936C0480915A048F5F06
:102AB00080935A0410925B0481E01A3209F080E09E
:102AC0008093490488CE90915A04911146C06EE9D2
:102AD00071E08AE494E00E94C11C892B41F064EA11
:102AE00071E08AE494E00E94C11C892BF9F4009300
:102AF000590480915D0490915E04909360048093EA
:102B00005F04E0905F04F0906004E114F10469F266
:102B10006AE474E0F70186A197A10E94C11C97FFA7
:102B2000FBC2D7019A968D919C91E7CF6AEA71E03A
:102B30008AE494E00E94C11C892B41F060EB71E0B3
:102B40008AE494E00E94C11C892B19F41092590464
:102B5000D0CFB2E0B0935904CCCFE0915904E23029
:102B600009F448C080914A04882309F443C0B0E2C4
:102B7000EB9FF0011124E92B3197E932F10508F0C0
:102B800039C0EB53FA4E0C94741BEE152F16361603
:102B90003D1640166E16751682168F16FA15FA1522
:102BA000FA15FA15FA15FA15FA15FA15FA15FA15AD
:102BB000FA15FA15FA15FA15FA15FA15FA15FA159D
:102BC000FA15FA15FA15FA15FA15EE1529162F1633
:102BD00036163D1640164716541661168AE494E0E0
:102BE0000E945F0D6093FA037093FB038093FC03D4
:102BF0009093FD03E0905F04F0906004C0905A044D
:102C0000E114F10409F451CFE0915F04F091600404
:102C100066A177A1F70186A197A10E94C11C892B0B
:102C200009F043CFD70198962D913C91D12CC21633
:102C3000D3060CF43ACF2C153D0539F440E150E0B1
:102C40006AE474E0C7010E94D11CF701E2A4F3A476
:102C5000D5CF91E0813409F445C090E043C064EDE4
:102C600073E08AE494E00E94D80CC4CF91E08335ED
:102C700009F090E09093DA03BDCF6BED73E0F1CFF4
:102C800091E0873509F090E09093E103B3CF8AE4B7
:102C900094E00E945F0D60930C0470930D04809388
:102CA0000E0490930F04A6CF8AE494E00E945F0D77
:102CB00060931A0470931B0480931C0490931D046A
:102CC00099CF8AE494E00E94CA186093EC03709351
:102CD000ED038093EE039093EF038CCF91E081336B
:102CE0000CF4BBCF90935C0485CF8AE494E00E94FF
:102CF000CA18609336047093370480933804909315
:102D0000390478CF8AE494E00E945F0D6093440414
:102D10007093450480934604909347046BCF8AE4F4
:102D200094E00E945F0D60932804709329048093BF
:102D30002A0490932B045ECF10925B0410925A04E5
:102D400010924804F2E0F093590410924904109252
:102D50005C0441CDEE3040F481E08E0F80935B0443
:102D6000F0E0E65BFB4F108380914904811133CD85
:102D7000809148041827109348042DCD0E944002EA
:102D80006B017C018AE893E00E94F50818E1AF9698
:102D9000AEADBFADAF97E12F1D92EA95E9F784E2A2
:102DA00090E0A0E0B0E089839A83AB83BC838091FC
:102DB000B4039091B503B0E0A0E08D839E83AF8310
:102DC000B8878DE090E0A0E0B0E089879A87AB8774
:102DD000BC87C98ADA8AEB8AFC8A80918C0390913D
:102DE0008D03A0918E03B0918F038D8B9E8BAF8B43
:102DF000B88FE396AEADBFADE397E12F1D92EA9594
:102E0000E9F72D968CAE9DAEAEAEBFAE2D978091FC
:102E1000B0039091B103B0E0A0E061968CAF9DAF9C
:102E2000AEAFBFAF619765968CAE9DAEAEAEBFAE96
:102E300065976D96CCAEDDAEEEAEFFAE6D972AE037
:102E400038EE4CE151E460919003709191038091D0
:102E50009203909193030E94D01AA1966CAF7DAF1C
:102E60008EAF9FAFA1972AE038EE4CE151E460911C
:102E700094037091950380919603909197030E941B
:102E8000D01AA5966CAF7DAF8EAF9FAFA5972AE005
:102E900038EE4CE151E46091980370919903809170
:102EA0009A0390919B030E94D01AA9966CAF7DAFB4
:102EB0008EAF9FAFA997E196AEADBFADE1971D92E2
:102EC0001A95E9F781E090E0A0E0B0E08DA39EA321
:102ED000AFA3B8A78091B2039091B303B0E0A0E094
:102EE00089A79AA7ABA7BCA74DA65EA66FA678AA8E
:102EF000CDAADEAAEFAAF8AE25E33AEF4EE85CE3EE
:102F000060919C0370919D0380919E0390919F031B
:102F10000E94D01A69AF7AAF8BAF9CAF25E33AEF2E
:102F20004EE85CE36091A0037091A1038091A2033D
:102F30009091A3030E94D01A21966CAF7DAF8EAF03
:102F40009FAF219725E33AEF4EE85CE36091A4033D
:102F50007091A5038091A6039091A7030E94D01AB7
:102F600025966CAF7DAF8EAF9FAF259786EB91E036
:102F70000E94770AA1966CAD7DAD8EAD9FADA197F5
:102F800042E00E94D60A87EC91E00E94C80A8EECCB
:102F900091E00E94770AA5966CAD7DAD8EAD9FAD98
:102FA000A59742E00E94D60A87EC91E00E94C80AE9
:102FB0008FED91E00E94770AA9966CAD7DAD8EAD44
:102FC0009FADA99742E00E94D60A87EC91E00E944B
:102FD000C80A8091C403882309F474C080EF91E08B
:102FE0000E94770A1092C5036091C8037091C903CB
:102FF0008091CA039091CB030E94191A28E23BE604
:103000004EE65EE40E9478196B017C016091C60374
:103010007091C70390E080E00E94191A9B01AC01F7
:10302000C701B6010E9407192091CC0321119058C5
:1030300046E00E94D60A8AE591E00E94770A8BEF6B
:1030400091E00E94770A1092C5036091CF037091BE
:10305000D0038091D1039091D2030E94191A28E2E3
:103060003BE64EE65EE40E9478196B017C016091BC
:10307000CD037091CE0390E080E00E94191A9B016D
:10308000AC01C701B6010E9407192091D303211199
:10309000905846E00E94D60A8AE591E00E94770A9D
:1030A00068EE73E080E090E00E940E02211431048B
:1030B00009F490CB0E94EF00882309F47BCB0E9497
:1030C000000078CB87E092E00E94C80AE9CF8091A7
:1030D000A8039091A903188A198A1A8A1B8A9A83CD
:1030E00089831C821B821A8785E790E098878F83EB
:1030F0001B861987CE0101960E944008683671052B
:103100008105910509F03CCB40E050E0BA018AE826
:1031100093E00E94A10E34CB892B09F4C6CC109207
:10312000600410925F04C1CC88E591E090938B031A
:1031300080938A038091AA039091AB03009739F0A2
:10314000DC01ED91FC910280F381E02D09958091E5
:10315000AC039091AD03009739F0DC01ED91FC9147
:103160000280F381E02D09958091AE039091AF0329
:10317000009739F0DC01ED91FC910280F381E02DA4
:1031800009958091A8039091A903009711F00C94E0
:10319000381C08951F93FC0199278827BC01E894E7
:1031A00011911032E9F3193010F01E30C8F31B32C0
:1031B00051F01D3249F4689406C00E94F118610F65
:1031C000711D811D911D119110531A30B0F33EF401
:1031D00090958095709561957F4F8F4F9F4F1F9170
:1031E0000895592F482F372F262F660F771F881FD6
:1031F000991F660F771F881F991F620F731F841F07
:10320000951F660F771F881F991F08955058BB2779
:10321000AA270E941E190C94911A0E94831A38F052
:103220000E948A1A20F039F49F3F19F426F40C9476
:10323000801A0EF4E095E7FB0C947A1AE92F0E94AD
:10324000A21A58F3BA17620773078407950720F08C
:1032500079F4A6F50C94C41A0EF4E0950B2EBA2F4F
:10326000A02D0B01B90190010C01CA01A00111248C
:10327000FF27591B99F0593F50F4503E68F11A1638
:10328000F040A22F232F342F4427585FF3CF4695C9
:1032900037952795A795F0405395C9F77EF41F16EB
:1032A000BA0B620B730B840BBAF09150A1F0FF0FB5
:1032B000BB1F661F771F881FC2F70EC0BA0F621FA1
:1032C000731F841F48F4879577956795B795F79591
:1032D0009E3F08F0B0CF9395880F08F09927EE0F26
:1032E0009795879508950E94561A08F481E00895ED
:1032F0000E948C190C94911A0E948A1A58F00E940C
:10330000831A40F029F45F3F29F00C947A1A511186
:103310000C94C51A0C94801A0E94A21A68F399237F
:10332000B1F3552391F3951B550BBB27AA276217C1
:103330007307840738F09F5F5F4F220F331F441FCE
:10334000AA1FA9F335D00E2E3AF0E0E832D0915002
:103350005040E695001CCAF72BD0FE2F29D0660FEF
:10336000771F881FBB1F261737074807AB07B0E832
:1033700009F0BB0B802DBF01FF2793585F4F3AF038
:103380009E3F510578F00C947A1A0C94C51A5F3F51
:10339000E4F3983ED4F3869577956795B795F795BE
:1033A0009F5FC9F7880F911D9695879597F90895A6
:1033B000E1E0660F771F881FBB1F62177307840742
:1033C000BA0720F0621B730B840BBA0BEE1F88F751
:1033D000E09508950E94AA1A88F09F5798F0B92F97
:1033E0009927B751B0F0E1F0660F771F881F991F3A
:1033F0001AF0BA95C9F714C0B13091F00E94C41AFE
:10340000B1E008950C94C41A672F782F8827B85F0D
:1034100039F0B93FCCF3869577956795B395D9F791
:103420003EF490958095709561957F4F8F4F9F4F9B
:103430000895E89409C097FB3EF4909580957095A7
:1034400061957F4F8F4F9F4F9923A9F0F92F96E9F0
:10345000BB279395F695879577956795B795F11165
:10346000F8CFFAF4BB0F11F460FF1BC06F5F7F4F02
:103470008F4F9F4F16C0882311F096E911C0772314
:1034800021F09EE8872F762F05C0662371F096E81D
:10349000862F70E060E02AF09A95660F771F881FEC
:1034A000DAF7880F9695879597F90895990F000890
:1034B000550FAA0BE0E8FEEF16161706E807F90706
:1034C000C0F012161306E407F50798F0621B730BA1
:1034D000840B950B39F40A2661F0232B242B252B22
:1034E00021F408950A2609F4A140A6958FEF811DC5
:1034F000811D089597F99F6780E870E060E0089566
:103500009FEF80EC089500240A94161617061806FB
:103510000906089500240A941216130614060506D7
:103520000895092E0394000C11F4882352F0BB0F68
:1035300040F4BF2B11F460FF04C06F5F7F4F8F4FCB
:103540009F4F089557FD9058440F551F59F05F3F06
:1035500071F04795880F97FB991F61F09F3F79F0B5
:1035600087950895121613061406551FF2CF469537
:10357000F1DF08C0161617061806991FF1CF8695B9
:103580007105610508940895E894BB27662777279D
:10359000CB0197F908950E94561A08F48FEF089509
:1035A0000E94E31A0C94911A0E94831A38F00E9428
:1035B0008A1A20F0952311F00C947A1A0C94801A30
:1035C00011240C94C51A0E94A21A70F3959FC1F39E
:1035D000950F50E0551F629FF001729FBB27F00DC1
:1035E000B11D639FAA27F00DB11DAA1F649F662716
:1035F000B00DA11D661F829F2227B00DA11D621F65
:10360000739FB00DA11D621F839FA00D611D221F1E
:10361000749F3327A00D611D231F849F600D211D02
:10362000822F762F6A2F11249F5750409AF0F1F085
:1036300088234AF0EE0FFF1FBB1F661F771F881FEE
:1036400091505040A9F79E3F510580F00C947A1A92
:103650000C94C51A5F3FE4F3983ED4F386957795B2
:103660006795B795F795E7959F5FC1F7FE2B880F94
:10367000911D9695879597F908950E94561A880B83
:10368000990B0895DB018F939F930E947A1BBF9142
:10369000AF91A29F800D911DA39F900DB29F900DA1
:1036A00011240895A1E21A2EAA1BBB1BFD010DC017
:1036B000AA1FBB1FEE1FFF1FA217B307E407F507E2
:1036C00020F0A21BB30BE40BF50B661F771F881FBE
:1036D000991F1A9469F760957095809590959B0154
:1036E000AC01BD01CF010895EE0FFF1F0590F491CD
:1036F000E02D09940E948D1BA59F900DB49F900D05
:10370000A49F800D911D11240895B7FF0C947A1B7E
:103710000E947A1B821B930B0895A29FB001B39F56
:10372000C001A39F700D811D1124911DB29F700DCA
:10373000811D1124911D08950F931F93CF93DF9343
:103740008230910510F482E090E0E0917304F091F2
:10375000740430E020E0B0E0A0E0309799F4211547
:10376000310509F44AC0281B390B24303105D8F53E
:103770008A819B816115710589F1FB0193838283A5
:10378000FE0111C040815181028113814817590700
:10379000E0F04817590799F4109761F012960C93CE
:1037A000129713961C933296CF01DF91CF911F9100
:1037B0000F9108950093730410937404F4CF2115AE
:1037C000310551F04217530738F0A901DB019A0186
:1037D000BD01DF01F801C1CFEF01F9CF909374046F
:1037E00080937304CDCFFE01E20FF31F8193919379
:1037F0002250310939832883D7CF20917104309129
:103800007204232B41F42091020130910301309383
:10381000720420937104209100013091010121155F
:10382000310541F42DB73EB7409104015091050197
:10383000241B350BE0917104F0917204E217F30739
:10384000A0F42E1B3F0B2817390778F0AC014E5F10
:103850005F4F2417350748F04E0F5F1F50937204D7
:1038600040937104819391939FCFF0E0E0E09CCF6F
:10387000CF93DF930097E9F0FC0132971382128215
:10388000A0917304B0917404ED0130E020E0109732
:10389000A1F420813181820F931F20917104309116
:1038A00072042817390709F061C0F0937204E0939D
:1038B0007104DF91CF910895EA01CE17DF07E8F593
:1038C0004A815B819E0141155105B1F7E901FB83F6
:1038D000EA8349915991C40FD51FEC17FD0761F494
:1038E000808191810296840F951FE90199838883D5
:1038F000828193819B838A83F0E0E0E012968D9130
:103900009C9113970097B9F52D913C911197CD019A
:103910000296820F931F2091710430917204281730
:10392000390739F6309751F51092740410927304E8
:10393000B0937204A0937104BCCFD383C28340813F
:103940005181840F951FC817D90761F44E5F5F4FEF
:1039500088819981480F591F518340838A819B81B7
:10396000938382832115310509F0B0CFF09374045D
:10397000E09373049ECFFD01DC01C0CF138212825D
:10398000D7CFFB01DC018D91019080190110D9F393
:10399000990B0895FB01DC0101900D920020E1F7E5
:1039A0000895FB01DC014150504048F001900D9218
:1039B0000020C9F701C01D9241505040E0F7089522
:1039C00010E0C8E5D0E004C0FE010E94741B2196FF
:0A39D000C935D107C9F7F894FFCFFD
:1039DA0000007504800000000000C2039B0EC303B0
:1039EA00280C4C0E00000000C2039D0EC303B20B4C
:1039FA00010E00000000C2039F0EC303930CB20D18
:103A0A000000000025018500B2007201E300C10038
:103A1A00D5000000000087065A06B606300653068F
:103A2A004006310600000000A10E0D0A006E616E0C
:103A3A0000696E66006F7666004D50553630353037
:103A4A005F54004D5055363035305F41004D50556A
:103A5A00363035305F47004164616672756974209B
:103A6A004D505536303530207465737421004750F7
:103A7A00524D4300474E524D43004750474741007D
:103A8A00474E47474100416363656C6572617469DB
:103A9A006F6E20583A2000206D2F735E320041630A
:103AAA0063656C65726174696F6E20593A200041D2
:103ABA006363656C65726174696F6E205A3A20009F
:103ACA004C617469747564653A20004C6F6E67695D
:103ADA00747564653A20004E6F2047505320646124
:0E3AEA00746120617661696C61626C652E000A
:00000001FF
